:020000040800F2
:10000000F81400209D010008790C0008FB07000887
:10001000750C000887020008231900080000000082
:1000200000000000000000000000000009100008AF
:100030008B02000800000000090D000821110008D3
:10004000B7010008B7010008B7010008B7010008B0
:10005000B7010008B7010008B7010008B7010008A0
:10006000B7010008B7010008B7010008B701000890
:10007000B7010008B7010008B7010008B701000880
:10008000B7010008B7010008B7010008B701000870
:10009000B7010008B7010008B7010008B701000860
:1000A000B7010008B7010008B7010008B701000850
:1000B000B7010008B7010008B7010008B701000840
:1000C000B7010008B7010008B7010008B701000830
:1000D000B70100081D160008B7010008B7010008A5
:1000E000B7010008B7010008B7010008B701000810
:1000F000B7010008B7010008B7010008B701000800
:10010000B7010008B7010008B7010008B7010008EF
:10011000B7010008B7010008B7010008B7010008DF
:10012000B7010008B7010008B7010008B7010008CF
:10013000B7010008B7010008B7010008B7010008BF
:10014000B7010008B7010008B7010008B7010008AF
:10015000B7010008B7010008B7010008B70100089F
:10016000B7010008B7010008B7010008B70100088F
:10017000B7010008B7010008B7010008B70100087F
:10018000B7010008B7010008DFF80CD000F05AF8FA
:1001900000480047D11C0008F8140020064880479A
:1001A00006480047FEE7FEE7FEE7FEE7FEE7FEE75C
:1001B000FEE7FEE7FEE7FEE761110008890100089F
:1001C0002DE9F05F0546002092469B46884606468C
:1001D000814640241BE0284641464746224600F01F
:1001E00020F853465A46C01A914110D3114618467A
:1001F000224600F039F82D1A67EB01084F462246D7
:100200000120002100F030F817EB00094E41201EBC
:10021000A4F10104DFDC484631462A464346BDE8E6
:10022000F09F202A04DB203A21FA02F000217047D7
:1002300021FA02F3D040C2F120029140084319464E
:1002400070470000064C074D06E0E06840F00103EF
:1002500094E8070098471034AC42F6D3FFF798FFB4
:100260006C6800088C680008202A04DB203A00FA39
:1002700002F1002070479140C2F1200320FA03F3FD
:1002800019439040704700BFFEE7704710B5044621
:10029000214610A001F048FB240300F035F900F0DE
:1002A000CDF800200D490860202000F045FEC4F381
:1002B000074000F041FEC4F3072000F03DFEE0B22D
:1002C00000F03AFE01200649C1F8B80200F0B6F885
:1002D00010BD000066653A25780D0A00B8824042DC
:1002E000008040421CB50121022000F00FFD0121D9
:1002F000402000F00BFD4FF48040009001208DF86D
:10030000040000208DF8060003208DF80500012070
:100310008DF8070069460F4800F002FA802000902F
:1003200069460D4800F0FCF980210B4800F063FAA3
:1003300001200A49086000F09DFD002000F018FE31
:1003400000F042F8064908800846018805A001F03F
:10035000EBFA1CBD0004024000180240B882404283
:1003600022000020454E32355158585F54595045AF
:100370003D25580D0A0000002DE9F04106460C46C7
:10038000174600200F490860032000F0D5FDC4F394
:10039000074000F0D1FDC4F3072000F0CDFDE0B22E
:1003A00000F0CAFD002505E0FF2000F0C5FD7055F6
:1003B000681C85B2BD42F7DB012002490860BDE838
:1003C000F0810000B882404210B5002400200E49A0
:1003D0000860902000F0B0FD002000F0ADFD00208E
:1003E00000F0AAFD002000F0A7FDFF2000F0A4FD12
:1003F00044EA0024FF2000F09FFD0443012003494C
:10040000C1F8B802204610BDB88240420080404288
:1004100010B50024002007490860052000F08CFD7D
:10042000FF2000F089FD044601200349C1F8B8020D
:10043000204610BDB88240420080404210B500BF47
:10044000FFF7E6FF00F001000028F9D110BD000021
:100450002DE9F05F81460F461646DFF8A8B04FEA57
:100460001738C7F30B0ACAF58054A64200DC34469D
:1004700044E04FEA08314FF480525846FFF77CFFC2
:10048000002508E00AEB05001BF80000FF2800D05B
:1004900003E0681C85B2A542F4DB00BFA54216DA72
:1004A0004046FFF7F3FE002507E019F8050005EBCD
:1004B0000A010BF80100681C85B2A542F5DB4FEA82
:1004C00008314FF48052584600F02EF804E02246DE
:1004D0003946484600F028F8A64200D10FE008F15E
:1004E00001084FF0000AA1442744301B86B2B6F53C
:1004F000805F02DD4FF4805400E03446B9E700BF6E
:10050000BDE8F09FF400002010B500200449086009
:10051000062000F011FD01200249C1F8B80210BD0B
:10052000B8824042008040422DE9F04107460E4625
:100530001446F0B2C0F58075AC4200DC254612E0EE
:100540002A463146384600F013F8AC4200D10BE0A1
:100550002F442E44601B84B2B4F5807F02DD4FF43B
:10056000807500E02546EBE700BFBDE8F0810000A4
:100570002DE9F04106460C461746FFF7C5FF00205F
:100580000F490860022000F0D7FCC4F3074000F0D8
:10059000D3FCC4F3072000F0CFFCE0B200F0CCFCA9
:1005A000002504E0705D00F0C7FC681C85B2BD4208
:1005B000F8DB012002490860FFF740FFBDE8F08149
:1005C000B882404251B18200A2F1C042126842F0AA
:1005D00001038200A2F1C042136009E08200A2F18F
:1005E000C0421268034B1A408300A3F1C0431A6053
:1005F00070470000FEFF0F0030B5002100220023ED
:100600000468A400A4F1C0442168444C2140D0E90E
:1006100001452C43C5682C4305692C4345692C438F
:1006200085692C43C5692C43056A2C43456A2C43D4
:10063000856A2C43C56A2C43056B2C43214304680F
:10064000A400A4F1C04421608468082C0BD1046884
:10065000A400A4F1C044246844F040050468A40048
:10066000A4F1C04425600468641CA400A4F1C04443
:10067000226802F04042446B2468456B6D6844EA8E
:100680000514456BAD6844EA0524456BAD8944EA21
:100690000544456B2D8A44EA0554456B2D7D44EA9B
:1006A0000564456BAD692C4322430468641CA400B7
:1006B000A4F1C0442260C46AB4F5804F24D1046818
:1006C000A400A4F1C044D4F8043103F04043846B87
:1006D0002468856B6D6844EA0514856BAD6844EA4F
:1006E0000524856B2D8A44EA0554856B2D7D44EAEB
:1006F0000564856BAD692C4323430468A400A4F111
:10070000C044C4F8043107E06FF070450468A400E9
:10071000A4F1C044C4F8045130BD00008000F7FFCC
:10072000F0B50A4600210023002400BF3DE001256A
:1007300005FA01F3156805EA03049C4234D1056803
:100740004F000326BE40B543056015794E00B54005
:100750000668354305601579012D02D01579022D03
:1007600016D185684F000326BE40B5438560557994
:100770004E00B540866835438560456801268E4049
:10078000B5434560456896798E40B6B235434560BD
:10079000C5684F000326BE40B543C560D5794E00FD
:1007A000B540C6683543C560491C1029BFD3F0BDAC
:1007B000F0B5002300244D07ED0E02FA05F3CE102C
:1007C00000F1200555F826504E07F70E0F26BE40C3
:1007D000B543CF1000F1200646F82750CE1000F1A7
:1007E000200555F8265045EA0304CE1000F12005F7
:1007F00045F82640F0BD0183704700BFFEE70000CA
:100800001CB50121112000F081FA00208DF80400B0
:100810001C20009001208DF8070069460748FFF76B
:100820007FFF00208DF804000120009002208DF849
:10083000070069460248FFF773FF1CBD0010024025
:100840000000024010B50446012C01D12249087075
:100850002148007801282AD12048006801280AD0C0
:100860001F48006838B11E48001F006818B11C48B6
:1008700008380068D8B90A2001F0D6F900201649D6
:10088000087016480068012800D110BD144800689F
:1008900008B90220F9E71248001F006808B90320D0
:1008A000F3E70F4808380068A0B90420EDE70B48CB
:1008B000006878B90A48006801280BD10848001F71
:1008C0000068012806D1064808380068012801D1CF
:1008D000014908700020D8E72400002000024042AF
:1008E0001002424270B506460F484088401E83B24F
:1008F0000D480088401E82B20021084600F050F8E2
:1009000000240CE0002504E0304600F07BF9681C70
:1009100085B205484088A842F6DC601C84B20248D3
:100920000088A042EEDC70BD1A00002010B504461D
:10093000134884715CB90821362000F053F94FF454
:10094000F0700F4948804FF4A070088016E028210D
:10095000362000F047F9B62000F03EF9002000F004
:100960004BF9022000F048F93B2000F045F94FF424
:10097000A070034948804FF4F070088010BD00005B
:100980001A00002070B504460D4616462B46224636
:100990002946204600F004F8304600F033F970BDD7
:1009A00070B504460D462A2000F016F92646E117D8
:1009B00004EB1161C1F30F2000F01EF9E11704EB05
:1009C00011610912A4EB012188B200F015F9164655
:1009D000D11702EB1161C1F30F2000F00DF916469B
:1009E000D11702EB11610912A2EB012188B200F0CC
:1009F00003F92B2000F0F0F82E46E91705EB116102
:100A0000C1F30F2000F0F8F8E91705EB11610912A6
:100A1000A5EB012188B200F0EFF81E46D91703EBD1
:100A20001161C1F30F2000F0E7F81E46D91703EB60
:100A300011610912A3EB012188B200F0DDF82C202E
:100A400000F0CAF870BD00002DE9F84F80460E4650
:100A500017461C46B3462046E31704EB5373DB10DE
:100A600021464FEAE47C04EB5C7C4FEAEC0CA4EBFF
:100A7000CC0CBCF1000F02D04FF0010C01E04FF0A4
:100A8000000C6344224604EBD27C4FEA6C0C03FB5F
:100A90000CF3DBB20093A7F12000C7B2002556E0AB
:100AA0000C2C07D107EB47002B4901EB800010F815
:100AB000059013E0102C05D1284800EB071010F822
:100AC00005900BE0182C07D107EBC700244901EB78
:100AD000800010F8059001E0BDE8F88F4FF0000AA3
:100AE0002FE009F0800030B11E48028831464046B0
:100AF000FFF748FF07E00A9828B91B4802883146EB
:100B00004046FFF73FFF4FEA49604FEA1069701C0B
:100B100086B216484088B04200DCDDE7A6EB0B0049
:100B2000A0420AD15E4608F101001FFA80F80F4882
:100B30000088404500DCCFE706E00AF1010000F044
:100B4000FF0ABAF1080FCCDB00BF681CC5B20098E1
:100B50008542A5DB00BFBFE7541F0008C82300087B
:100B6000B829000816000020180000201A000020F4
:100B70002DE9F84704460D4690469946DDE9096798
:100B800004F0FF0A08EB04001FFA80F809EB0500E7
:100B90001FFA80F916E0444502DB5446A81985B2D5
:100BA0004D4500DB14E0002000903A78334629469A
:100BB0002046FFF749FF304606EBD07104EB610198
:100BC0008CB27F1C38787E2802DC38782028E2DA64
:100BD00000BFBDE8F88700000149088070470000A9
:100BE0007E00006C00B503460A461846FFF7F4FF86
:100BF000104600F001F800BD014908807047000070
:100C00008000006C0112044A1180C1B24FF0D8423A
:100C1000A2F88010704700008000006C1CB5012114
:100C2000202000F073F801208DF8040040020090AD
:100C300003208DF8050000208DF8060001208DF8B6
:100C4000070069460A48FFF76BFD4FF4007108483A
:100C5000FFF7D1FD4FF48060009069460448FFF72C
:100C60005FFD4FF480610248FFF7C5FD1CBD000029
:100C70000014024000BFFEE77047000070B500217D
:100C800000230F22C4781CB3174C246804F4E064DA
:100C9000C4F5E064C4F30721C1F10404E3B20A41DE
:100CA00044789C40E1B28478144021430C07210E23
:100CB0000E4C05786155047804F01F050124AC4002
:100CC00005786D11AD0005F1E025C5F8004109E09A
:100CD000047804F01F050124AC40054D0678761118
:100CE00045F8264070BD00000CED00E000E400E097
:100CF00080E100E002490143024A116070470000B0
:100D00000000FA050CED00E07047000029B1064A2A
:100D100012680243044B1A6004E0034A12688243DB
:100D2000014B1A60704700003038024029B1064A72
:100D300012680243044B1A6004E0034A12688243BB
:100D4000014B1A60704700003838024029B1064A4A
:100D500012680243044B1A6004E0034A126882439B
:100D6000014B1A60704700004438024029B1064A1E
:100D700012680243044B1A6004E0034A126882437B
:100D8000014B1A607047000024380240F0B5002182
:100D900000220024022500260223324F3F6807F07C
:100DA0000C0121B1042905D0082937D105E02E4FC7
:100DB000076036E02D4F076033E02A4F3F1F3F6842
:100DC000C7F38056274F3F1F3F6807F03F036EB1C0
:100DD000264FB7FBF3F7DFF88CC0ACF1040CDCF85E
:100DE00000C0CCF3881C07FB0CF40CE01E4FB7FBD3
:100DF000F3F7DFF870C0ACF1040CDCF800C0CCF302
:100E0000881C07FB0CF4174F3F1F3F68C7F30147CF
:100E10007F1C7D00B4FBF5F7076002E0124F07600E
:100E200000BF00BF0F4F3F6807F0F0010909104FE6
:100E30007A5C0768D74047600A4F3F6807F4E05183
:100E4000890A0B4F7A5C4768D7408760054F3F6837
:100E500007F46041490B064F7A5C4768D740C7608A
:100E6000F0BD0000083802400024F40000127A00AF
:100E70000000002000B587B001210220FFF746FFE7
:100E800001210803FFF762FF052203212848FFF72D
:100E90008FFC052204212648FFF78AFC0522114613
:100EA0002348FFF785FC3820059002208DF81800B4
:100EB00000208DF81A0003208DF8190001208DF80C
:100EC0001B0005A91A48FFF72BFC01210803FFF7B7
:100ED0004DFF00214FF48050FFF748FF0020ADF890
:100EE00000004FF48270ADF802000020ADF804005D
:100EF0000220ADF806000120ADF808004002ADF870
:100F00000A003820ADF80C000020ADF80E000720D4
:100F1000ADF810006946074800F058F8012105486F
:100F200000F03AF8FF2000F007F807B000BD00001D
:100F3000000402400030014010B5044600BF022109
:100F40000A4800F035F80028F9D02146074800F09B
:100F50003BF800BF0121054800F02AF80028F9D02D
:100F6000024800F02EF8C0B210BD00000030014071
:100F700010B50446074800884FF6C7710840054978
:100F8000088008460088204308800121014800F0BD
:100F900003F810BD0030014021B1028842F0400248
:100FA000028004E002884FF6BF731A400280704747
:100FB0000246002013890B400BB1012000E0002005
:100FC00070470146888970478181704710B50022BB
:100FD000028802F441520B884C8823438C882343B7
:100FE000CC8823430C8923434C8923438C89234396
:100FF000CC8923431A430280838B4FF2FF74234032
:1010000083830B8A038210BD704700000CB500205B
:10101000019000903448006840F480303249086004
:1010200000BF3148006800F4003000900198401C77
:101030000190009818B90198B0F5A04FF1D12A4855
:10104000006800F4003010B10120009001E00020A1
:1010500000900098012846D123484030006840F0B5
:1010600080502149403108602048006840F44040E9
:101070001E4908601C48083000681B490831086098
:101080000846006840F4004008600846006840F4E4
:10109000A05008601648091F0860081F006840F04B
:1010A0008070091F086000BF0F48006800F00070E2
:1010B0000028F9D040F205700E4908600A4808304F
:1010C000006820F0030008490831086008460068FD
:1010D00040F00200086000BF03480830006800F0DC
:1010E0000C000828F8D10CBD003802400070004008
:1010F00008544007003C0240042808D14FF0E0218A
:10110000096941F004014FF0E022116107E04FF05E
:10111000E021096921F004014FF0E02211617047DC
:101120007047000010B504466FF00400FFF7E4FFBD
:10113000E11704EB5171C1F3C701074A1170104662
:10114000007800EB4001C1EBC0104FF6FF7101EADF
:10115000C0000249088010BD1000002012000020CD
:1011600010B51548006840F4700013490860134832
:10117000006840F001001149086000200F49083163
:1011800008600E4800680E4908400C4908600D4888
:10119000091D0860081F006820F48020091F0860EE
:1011A000002006490C310860FFF730FF4FF0006067
:1011B00001498039086010BD88ED00E00038024028
:1011C000FFFFF6FE1030002400B59DB00121084657
:1011D000FFF7ACFD0F2007900020089060200990D9
:1011E00000200A900B900C900D901520009001901B
:1011F00005200290002003900490059006900620A0
:101200000E9000200F90109010201190002012904E
:1012100014901390159016904FF480501790002062
:1012200018904FF48040199000201A9007A81B9046
:10123000CDF870D00EA8FFF7DFF901210620FFF7E7
:10124000C1F91DB000BD00001CB501217820FFF7D9
:101250005DFD01210220FFF759FD0C220E2162489D
:10126000FFF7A6FA0C220F215F48FFF7A1FA0C2224
:1012700000215D48FFF79CFA0C2201215A48FFF734
:1012800097FA0C2207215948FFF792FA0C220821FD
:101290005648FFF78DFA0C2209215448FFF788FAC7
:1012A0000C220A215148FFF783FA0C220B214F48E8
:1012B000FFF77EFA0C2211464C48FFF779FA0C2210
:1012C0000D214A48FFF774FA0C220E214748FFF718
:1012D0006FFA0C220F214548FFF76AFA0C22082109
:1012E0004148FFF765FA0C2209213F48FFF760FAF1
:1012F0000C220A213C48FFF75BFA0C2204213A48F1
:10130000FFF756FA0C2205213748FFF751FA0C2255
:1013100011463748FFF74CFA0C2211463548FFF7C3
:1013200047FA4CF23370009002208DF80400002040
:101330008DF8060003208DF8050001208DF80700C8
:1013400069462948FFF7ECF94FF6807000900220BB
:101350008DF8040000208DF8060003208DF80500AC
:1013600001208DF8070069462048FFF7D9F94FF4AE
:101370008050009002208DF8040000208DF80600B7
:1013800003208DF8050001208DF8070069461848F4
:10139000FFF7C6F94FF48050009002208DF804004A
:1013A00000208DF8060003208DF8050001208DF83F
:1013B000070069460F48FFF7B3F94FF4004000906B
:1013C00001208DF8040000208DF8060002208DF821
:1013D000050001208DF8070069460748FFF7A0F9CE
:1013E0000120064908601CBD000C024000100240AC
:1013F000001402400018024000040240BC82404237
:1014000010B5FFF721FFFFF7DFFE322000F00CFCE4
:10141000DA20FFF7E1FB7B4800887B4988804FF0AA
:10142000D840B0F880004FF6FF7101EA00207649FD
:101430008880DB20FFF7D0FB734880884FF0D841CD
:10144000B1F88010084370498880084680884FF0C2
:10145000D841B1F8801008436B49888008468188DC
:101460006AA000F061FAE020FFF7B6FB0020FFF76A
:10147000C3FB1320FFF7C0FB1820FFF7BDFB0420C0
:10148000FFF7BAFB0F20FFF7B7FB0620FFF7B4FB0F
:101490003A20FFF7B1FB5620FFF7AEFB4D20FFF7D8
:1014A000ABFB0320FFF7A8FB0A20FFF7A5FB0620F4
:1014B000FFF7A2FB3020FFF79FFB3E20FFF79CFBCE
:1014C0000F20FFF799FBE120FFF786FB0020FFF7D5
:1014D00093FB1320FFF790FB1820FFF78DFB0120F3
:1014E000FFF78AFB1120FFF787FB0620FFF784FB3D
:1014F0003820FFF781FB3420FFF77EFB4D20FFF7FC
:101500007BFB0620FFF778FB0D20FFF775FB0B2018
:10151000FFF772FB3120FFF76FFB3720FFF76CFB03
:101520000F20FFF769FBC020FFF756FB1820FFF7DD
:1015300063FB1720FFF760FBC120FFF74DFB412045
:10154000FFF75AFBC520FFF747FB0020FFF754FBCE
:101550001A20FFF751FB8020FFF74EFB3620FFF7E4
:101560003BFB0820FFF748FB3A20FFF735FB5520EF
:10157000FFF742FBB020FFF72FFB0020FFF73CFBFB
:10158000B120FFF729FBA020FFF736FBB420FFF7BF
:1015900023FB0220FFF730FBB620FFF71DFB0020E6
:1015A000FFF72AFB2220FFF727FB3B20FFF724FB56
:1015B000E920FFF711FB0020FFF71EFBF720FFF7E4
:1015C0000BFBA920FFF718FB5120FFF715FB2C2080
:1015D000FFF712FB8220FFF70FFB1120FFF7FCFA49
:1015E000782000F021FB2920FFF7F6FA2C20FFF7E6
:1015F000F3FA0020FFF79AF94FF6FF70FFF772F940
:1016000010BD00008000006C1A000020204C4344F4
:101610002049443A25780D0A0000000010B540F238
:1016200025511D4800F0BAF810B31B4800F070F9BE
:10163000C4B21A48008800F40040C8B917480088AE
:1016400000F4804060B10A2C03D0002013490880C8
:1016500020E01248008840F400401049088019E05A
:101660000D2C06D10D48008840F480400B490880BD
:1016700010E00A480088C0F30D0009490C540748DF
:101680000088401C0549088008460088C72801DDFD
:101690000020088010BD0000001001401400002050
:1016A0002C00002010B588B0044601210846FFF741
:1016B0002DFB01211020FFF749FB072209212448B7
:1016C000FFF776F807220A212148FFF771F84FF457
:1016D000C060069002208DF81C008DF81D000020CF
:1016E0008DF81E0001208DF81F0006A91848FFF78D
:1016F00017F802940020ADF80C00ADF80E00ADF81C
:101700001000ADF814000C20ADF8120002A9114829
:1017100000F094F801210F4800F027F840210D480F
:1017200000F01AF8012240F225510A4800F060F852
:1017300025208DF8040003208DF805008DF80600A3
:1017400001208DF8070001A8FFF798FA08B010BD36
:10175000000002400010014001F40072B2F5007F69
:1017600000D100BFCA430280704721B1828942F490
:101770000052828104E082894DF6FF731A40828113
:10178000704702460020B1F5007F00D100BF1388EA
:101790000B400BB1012000E00020704770B50246FD
:1017A000002400230025002040F66A16B14200D133
:1017B00000BFC1F3421501F01F03012606FA03F32F
:1017C000012D02D19689334006E0022D02D1168AFE
:1017D000334001E0968A33400C12012606FA04F4E5
:1017E0001688344013B10CB1012000E0002070BD18
:1017F000F0B50346002400260025002040F66A17B5
:10180000B94200D100BF1846C1F3421401F01F06CF
:10181000012707FA06F5012C01D10C3004E0022C57
:1018200001D1103000E014301AB107682F4307606F
:1018300002E00768AF430760F0BD00002DE9FF47F5
:1018400005460E460024A14600BFA046B08900B15F
:1018500000BF2C8A24F44054F08804432C82AC89C5
:1018600041F20C608443B088318908437189084390
:101870000443AC81AC8A24F44074B0890443AC8244
:101880006846FFF783FA2048854202D01F48854208
:1018900002D1DDF80C9001E0DDF80890A88900F491
:1018A000004040B109EBC90000EB09103168490064
:1018B000B0FBF1F707E009EBC90000EB0910316854
:1018C0008900B0FBF1F76420B7FBF0F004012009B8
:1018D000642101FB1078A88900F4004040B1322057
:1018E00000EBC800B0FBF1F000F00700044308E093
:1018F000322000EB08106421B0FBF1F000F00F0083
:1019000004432C81BDE8FF87001001400014014012
:1019100001468888C0F308007047C1F3080282803E
:10192000704700BFFEE700000FB4054B10B503A9D8
:10193000044A029800F018F810BC5DF814FB00008F
:10194000AD1C00082800002002E008C8121F08C1D2
:10195000002AFAD170477047002001E001C1121F30
:10196000002AFBD1704700002DE9FF4F8DB09B4648
:101970000F460446002606E025280BD05A460F994C
:101980009047641C761C20780028F5D111B03046B1
:10199000BDE8F08F0025A8460122984900E00543E4
:1019A00014F8013F203B02FA03F00842F7D12078F7
:1019B0002E2817D114F8010F45F004052A280ED05F
:1019C0006FF02F022078A0F1300109290AD808EB26
:1019D000880102EB410100EB0108641CF2E757F8B3
:1019E000048B641C20786C280DD004DC4C2812D0A9
:1019F0006A2811D104E074280DD07A280CD10AE0AD
:101A000045F4001507E0617845F48015814202D164
:101A1000641C05F58015641C2278692A45D008DC11
:101A2000002AB3D0582A69D0632A10D0642A08D17A
:101A30003BE0702A67D0732A13D0752A5CD0782ACD
:101A40005CD010465A460F999047761CD3E017F8A1
:101A5000040B8DF8000000208DF80100E9460120FC
:101A600003E057F8049B4FF0FF3069074FF0000583
:101A700001D40AE06D1C45450DDA8542FADB19F800
:101A800005100029F6D106E06D1C8542FCDB19F833
:101A900005100029F8D12E4404E019F8010B5A462C
:101AA0000F9990476D1EF8D2A5E00A200021CDE9DC
:101AB0000801C5F3025002280DD001CFC117031E43
:101AC00071F100030DDA4FF0000CD0EB0C006CEB61
:101AD00001012D2308E0FF1D27F00707F7E80201A9
:101AE000EDE72B0504D52B238DF8283001233BE0AF
:101AF000EB0739D02023F7E70A2000E0102000216F
:101B0000CDE9080107E01020002145F00405CDE9EA
:101B100008014FF00808C5F3025002280FD001CF8A
:101B200000214FF0000A2B071FD5702A0DD0DDE9E8
:101B300008C38CF0100C5CEA030C0CD015E0FF1D00
:101B400027F00707F7E80201EBE740228DF828208D
:101B50004FF0010A0BE050EA010306D030238DF864
:101B600028308DF8292002239A46582A04D024A22E
:101B70000DF120090B9209E026A2F9E7DDE908231F
:101B8000FEF71EFB0B9B9B5C09F8013D50EA01022E
:101B9000F4D1ADEB090020300890680701D44FF074
:101BA00001080899884502DDA8EB010000E000204B
:101BB0008046002506E00AA85A46405D0F999047E6
:101BC0006D1C761C5545F6DB04E030205A460F9913
:101BD0009047761CB8F10001A8F10108F5DC05E09A
:101BE00019F8010B5A460F999047761C0899481E20
:101BF00008900029F4DC641CC5E6000009280100F7
:101C00003031323334353637383961626364656672
:101C10000000000030313233343536373839414234
:101C2000434445460000000070B504464FF4077079
:101C300094FBF0F0C6B24FF4077094FBF0F100FB98
:101C4000114085B205E04FF4077000F009F8701EEE
:101C5000C6B2002EF7D115B1284600F001F870BDCC
:101C60000146114A12884A434FF0E0235A6100228C
:101C70009A611A46126942F001021A6100BF4FF0E0
:101C8000E022106900F001021AB100F48032002A4B
:101C9000F5D04FF0E022126922F001024FF0E0236C
:101CA0001A6100229A6170471200002070B5044644
:101CB0000D46E1B20548FFF730FE00BF8021034822
:101CC000FFF75FFD0028F9D0204670BD00100140ED
:101CD0008AB0A820FFF726FA4FF4A060FFF70AF8B1
:101CE000FEF79CFF4FF4E130FFF7DCFCFFF788FBC9
:101CF000FEF786FDFEF7F6FA00205249088052A052
:101D00001021CDE900105448438802880A21084672
:101D1000FEF72EFF51A01021CDE900104E48438858
:101D200002881E210A20FEF723FF50A01021CDE9D2
:101D3000001049484388028832210A20FEF718FF24
:101D40004EA01021CDE90010434843880288462167
:101D50000A20FEF70DFF4FF478403A49088011E061
:101D60004CA0FFF7E1FD52A01021CDE900103A4848
:101D70004388028896210A20FEF7FAFE4FF47A7013
:101D8000FFF752FFFEF720FB46F617018842E7D126
:101D90004EA0FFF7C9FD54A01021CDE900102E4838
:101DA0004388028896210A20FEF7E2FE54A0102103
:101DB000CDE90010284843880288AA210A20FEF7AE
:101DC000D7FE52A01021CDE9001023484388028895
:101DD000BE210A20FEF7CCFE32E00020FEF732FDE5
:101DE0000446012C13D1102200214B48FEF730FB92
:101DF00049494AA0FFF798FD18A01021CDE900102D
:101E0000154843880288AA216220FEF7B1FE022C01
:101E100013D11022002102A8FEF7AEFA02A944A0B5
:101E2000FFF782FD02A81021CDE900100A4843887F
:101E30000288BE216220FEF79BFE0A20FFF7F4FE17
:101E4000CBE70000160000205052454348494E2081
:101E500053544D33324634001A0000207777772EE2
:101E60007072656368696E2E6E657400464C4153EE
:101E7000482D535049205465737400004B5F5550F2
:101E80003A57726974652020204B4559303A5265A3
:101E900061640000454E3235513132382043686567
:101EA000636B204661696C6564210D0A00000000C7
:101EB000454E32355131323820436865636B2046D8
:101EC00061696C656421202000000000454E3235B8
:101ED0005131323820436865636B20537563636505
:101EE0007373210D0A000000454E323551313238EE
:101EF00020436865636B20537563636573732100CA
:101F0000577269746520446174613A005265616476
:101F10002044617461203A00441F0008B7A2CBCD71
:101F2000B5C4CAFDBEDDA3BA25730D0A00000000CA
:101F3000BDD3CAD5B5C4CAFDBEDDA3BA25730D0A8B
:101F4000000000007777772E7072656368696E2EE7
:101F50006E6574000000000000000000000000003A
:101F6000000000003F4000000000000000003000C2
:101F7000400030004000000009000BC03D000BC0D5
:101F80003D00090018C024407FE02240318000005D
:101F9000180024C01B000D803240018003801C40CB
:101FA00027401C8007400040100060000000000037
:101FB000000000000000000000001F8020404020C2
:101FC0000000402020401F800000000009000600A3
:101FD0001F80060009000000040004003F80040088
:101FE000040000000010006000000000000000007D
:101FF000040004000400040004000000000000408D
:102000000000000000000000002001C006003800B1
:10201000400000001F802040204020401F80000022
:10202000000010403FC000400000000018C02140E8
:1020300022402440184000001080204024402440CA
:102040001B80000002000D0011003FC00140000095
:102050003C80244024402440238000001F802440F2
:1020600024403440038000003000200027C03800A6
:10207000200000001B802440244024401B800000DE
:102080001C0022C0224022401F80000000000000EF
:102090000840000000000000000000000460000094
:1020A00000000000000004000A00110020804040F1
:1020B0000900090009000900090000000000404073
:1020C000208011000A000400180020002340240092
:1020D000180000001F802040274029401F400000BA
:1020E000004007C039000F0001C0004020403FC041
:1020F000244024401B8000001F80204020402040BE
:102100003080000020403FC0204020401F80000061
:1021100020403FC024402E4030C0000020403FC03F
:1021200024402E00300000000F001080204022408C
:102130003380020020403FC0040004003FC0204024
:10214000204020403FC02040204000000060202070
:1021500020203FC02000200020403FC024400B0032
:1021600030C0204020403FC020400040004000C020
:102170003FC03C0003C03C003FC0000020403FC0C7
:102180000C4023003FC020001F8020402040204002
:102190001F80000020403FC02440240018000000A1
:1021A0001F802140214020E01FA0000020403FC0B0
:1021B0002440260019C0004018C02440244022407A
:1021C00031800000300020403FC02040300000003F
:1021D00020003F80004000403F80200020003E0063
:1021E00001C0070038002000380007C03C0007C0CD
:1021F00038000000204039C0060039C020400000EF
:102200002000384007C0384020000000304021C086
:102210002640384020C00000000000007FE0402041
:1022200040200000000070000C000380004000000F
:102230000000402040207FE000000000000020005F
:1022400040002000000000000010001000100010EE
:10225000001000100000000040000000000000001E
:10226000000002800540054003C0004020003FC040
:102270000440044003800000000003800440044048
:102280000640000000000380044024403FC000409E
:1022900000000380054005400340000000000440AA
:1022A0001FC0244024402000000002E005500550DB
:1022B0000650042020403FC00440040003C00040FA
:1022C0000000044027C00040000000000010001083
:1022D000041027E00000000020403FC0014007003C
:1022E00004C00440204020403FC0004000400000A7
:1022F00007C0040007C0040003C00000044007C07A
:102300000440040003C00040000003800440044077
:1023100003800000041007F0045004400380000014
:10232000000003800440045007F00010044007C080
:102330000240040004000000000006400540054083
:1023400004C00000000004001F80044000400000A2
:10235000040007800040044007C00040040007005C
:1023600004C0018006000400060001C0070001C08F
:1023700006000000044006C0010006C00440000042
:102380000410071004E0018006000400000004406F
:1023900005C00640044000000000000004007BE08F
:1023A00040200000000000000000FFF000000000DE
:1023B000000040207BE0040000000000400080009E
:1023C000400020002000400000000000000000004D
:1023D00000000000000000000000000000001FCC12
:1023E000000C000000000000000008003000600049
:1023F0000800300060000000022003FC1E200220C4
:1024000003FC1E200220000000000E1811043FFFF4
:1024100010840C78000000000F0010840F3800C0FA
:10242000077818840078000000780F8410C4112405
:102430000E9800E4008400080800680070000000A6
:10244000000000000000000000000000000007E0A5
:102450001818200440020000000040022004181850
:1024600007E00000000000000240024001800FF081
:1024700001800240024000000080008000800FF8D0
:1024800000800080008000000001000D000E0000B0
:1024900000000000000000000000008000800080BC
:1024A00000800080008000800000000C000C000014
:1024B000000000000000000000000006001800609E
:1024C0000180060018002000000007F00808100432
:1024D0001004080807F000000000080408041FFCAE
:1024E000000400040000000000000E0C1014102472
:1024F000104411840E0C000000000C18100411048C
:10250000110412880C700000000000E00320042475
:1025100008241FFC0024000000001F9810841104F0
:102520001104108810700000000007F008881104E2
:10253000110418880070000000001C00100010FC3E
:1025400013001C001000000000000E38114410841D
:10255000108411440E38000000000700088C10445D
:102560001044088807F00000000000000000030C81
:10257000030C000000000000000000000001010644
:102580000000000000000000000000800140022068
:10259000041008081004000002200220022002207B
:1025A000022002200220000000001004080804108D
:1025B000022001400080000000000E001200100CFC
:1025C000106C10800F00000003E00C1813E41424BA
:1025D00017C4082807D000000004003C03C41C40B6
:1025E000074000E4001C000410041FFC1104110447
:1025F00011040E880070000003E00C181004100491
:10260000100410081C10000010041FFC100410041B
:102610001004080807F0000010041FFC1104110446
:1026200017C410040818000010041FFC1104110046
:1026300017C010000800000003E00C18100410047C
:1026400010441C780040000010041FFC108400801F
:10265000008010841FFC10040000100410041FFCF4
:10266000100410040000000000030001100110011C
:102670001FFE10001000000010041FFC1104038056
:102680001464181C1004000010041FFC1004000443
:1026900000040004000C000010041FFC1F0000FCDC
:1026A0001F001FFC1004000010041FFC0C0403009A
:1026B00000E010181FFC100007F0080810041004B8
:1026C0001004080807F0000010041FFC108410809C
:1026D000108010800F00000007F00818102410244C
:1026E000101C080A07F2000010041FFC110411005E
:1026F00011C011300E0C000400000E1C11041084D7
:10270000108410441C3800001800100010041FFC36
:10271000100410001800000010001FF8100400043E
:10272000000410041FF8100010001E0011E0001C2F
:10273000007013801C0010001FC0103C00E01F0040
:1027400000E0103C1FC000001004180C163401C03B
:1027500001C01634180C100410001C00130400FCF7
:1027600013041C00100000000804101C10641084E6
:1027700013041C04101800000000000000007FFE7D
:102780004002400240020000000030000C000380C4
:102790000060001C000300000000400240024002F4
:1027A0007FFE00000000000000000000200040004C
:1027B0004000400020000000000100010001000175
:1027C0000001000100010001000040004000200065
:1027D00000000000000000000000009801240144F7
:1027E0000144014400FC000410001FFC00880104A7
:1027F00001040088007000000000007000880104DF
:102800000104010400880000000000700088010439
:10281000010411081FFC0004000000F801440144F9
:102820000144014400C800000000010401040FFC41
:102830001104110411001800000000D6012901291B
:10284000012901C90106000010041FFC00840100D9
:102850000100010400FC000400000104190419FC3B
:10286000000400040000000000000003000101015A
:10287000190119FE0000000010041FFC0024004094
:1028800001B4010C010400000000100410041FFC3E
:102890000004000400000000010401FC0104010028
:1028A00001FC0104010000FC010401FC00840100A2
:1028B0000100010400FC0004000000F80104010410
:1028C0000104010400F80000010101FF008501047A
:1028D00001040088007000000000007000880104FE
:1028E0000104010501FF00010104010401FC008451
:1028F0000104010001800000000000CC012401243B
:10290000012401240198000000000100010007F8E3
:102910000104010400000000010001F800040004AB
:102920000004010801FC0004010001800170000C9A
:10293000001001600180010001F0010C003001C0B5
:102940000030010C01F0010000000104018C007452
:102950000170018C01040000010101810171000E70
:10296000001801600180010000000184010C0134A5
:1029700001440184010C0000000000000000000080
:1029800001003EFC40024002000000000000000088
:10299000FFFF0000000000000000400240023EFC7B
:1029A00001000000000000000000600080008000C6
:1029B0004000400020002000000000000000000057
:1029C0000000000000000000000000000000000007
:1029D00000000000000000000000000000000000F7
:1029E00000000000000000000000000F80380FFE13
:1029F000380F8038000000000000000000000000D8
:102A00000000000000000100000600000C0000387B
:102A100000003100000600000C000038000030000B
:102A2000000000000000000061800067F807F980E6
:102A30000061800061800061800061800067F807AC
:102A4000F98000618000000000000000000001C06B
:102A5000E003E0F00630080418081FFFFE040E082B
:102A60000787F00381E000000000000001F000068D
:102A70000C00040408060C7001F9C0000E00003BB5
:102A8000E000EC18070808040C180003E000000040
:102A90000001E00007F003F818041C0804170807F9
:102AA000E1D003C0E00023B0003C08002008000093
:102AB00010000000000000010000310000320000A2
:102AC0001C000000000000000000000000000000EA
:102AD00000000000000000000000000000000000F6
:102AE00000000000000000007F0001FFC00780F030
:102AF0000C0018100004200002000000000000205C
:102B000000021000040C00180780F001FFC0007FD5
:102B100000000000000000000000000000000000B5
:102B2000000000004200006600006600003C00005B
:102B3000180003FFC0001800003C0000660000669B
:102B4000000042000000000008000008000008002B
:102B500000080000080001FFC00008000008000095
:102B6000080000080000080000000000000100004C
:102B70003100003200001C000000000000000000D6
:102B80000000000000000000000000000000000045
:102B90000800000800000800000800000800000805
:102BA0000000080000080000080000080000000005
:102BB000000000000000000038000038000038006D
:102BC0000000000000000000000000000000000005
:102BD0000000000000000000000600001C00007063
:102BE000000180000E0000380000C0000700001C3B
:102BF0000000300000000000000000007F8001FFA6
:102C0000E00380700600180400080400080600189D
:102C100003807001FFE0007F8000000000000000E2
:102C2000000001000801000801000803FFF807FF89
:102C3000F800000800000800000800000000000084
:102C400000000001C03802C05804009804011804B4
:102C50000218040418061C1803F81801E0F8000014
:102C60000000000000000001C0E003C0F004000804
:102C700004080804080806180803F41801E7F0001F
:102C800001E0000000000000000000000300000D53
:102C90000000110000610000810803010807FFF82F
:102CA0000FFFF8000108000108000000000000000C
:102CB00000E007FCD00608080610080610080610F9
:102CC00008061838060FF00607C0000000000000D4
:102CD000000000003F8001FFE00384300208180478
:102CE0001008041008041008071810030FF000075C
:102CF000C000000000000000000003C0000700004A
:102D00000600000600F80607F806180006E00007AF
:102D1000000006000000000000000001E1E003F7F1
:102D2000F0063410041808041808040C08040C08F1
:102D300006161803F3F001C1E000000000000000D7
:102D4000F80003FC300306380402080402080402F9
:102D5000080404100308F001FFC0007F0000000019
:102D60000000000000000000000000000000000063
:102D7000703800703800703800000000000000005B
:102D80000000000000000000000000000000000043
:102D900000000000301A00301C000000000000009D
:102DA000000000000000000000000000000000081B
:102DB000000014000022000041000080800100405B
:102DC00002002004001008000800000000000000BD
:102DD000210000210000210000210000210000212D
:102DE000000021000021000021000021000000005F
:102DF000000000000000080008040010020020018C
:102E00000040008080004100002200001400000803
:102E10000000000000000003C00004C00004000027
:102E2000080038080F380808380810000C30000770
:102E3000E00003C000000000000000003F8000FF31
:102E4000E0038070020F1006708804C088048308B5
:102E5000047F8802C09003012000FE4000000800AB
:102E600000180001F8003E0801C20007020007E256
:102E70000000FE00001FC80001F800003800000834
:102E800004000807FFF807FFF8040808040808040E
:102E9000080804080806180803F41801E7F0000100
:102EA000E0000000000000003F8001FFE0038070B0
:102EB00002001804000804000804000804001006BA
:102EC00000200780C000000004000807FFF807FF8B
:102ED000F8040008040008040008040018020010A8
:102EE00003807001FFE0007F8000000004000807FD
:102EF000FFF807FFF8040808040808040808040895
:102F000008043E08040008060018010060000000E4
:102F100004000807FFF807FFF80408080408000485
:102F20000800040800043E000600000600000180BE
:102F300000000000000000003F8001FFE0038070FF
:102F40000600180400080402080402080203F0073F
:102F500083F000020000020004000807FFF807FFEA
:102F6000F804080800080000080000080000080035
:102F700004080807FFF807FFF80400080000000035
:102F8000000004000804000804000807FFF807FF19
:102F9000F804000804000804000800000000000015
:102FA000000000000006000007000001040001040A
:102FB000000104000307FFFE07FFFC0400000400FB
:102FC0000004000004000807FFF807FFF8040C08DD
:102FD000001800003E0004C7800503C80600F8047E
:102FE000003804001800000804000807FFF807FF75
:102FF000F8040008000008000008000008000008AD
:10300000000008000018000060000000040008072D
:10301000FFF807800807FC00007FC00003F80007E6
:10302000C000780007800807FFF807FFF8040008D1
:1030300004000807FFF807000803C00000E00000D4
:103040003800001E000007000001C00400F007FF68
:10305000F8040000000000007F8001FFE0038070A2
:1030600006001804000804000806001803003001D8
:10307000FFE0007F8000000004000807FFF807FF62
:10308000F804040804040004040004040004040018
:10309000060C0003F80001F0000000000000000032
:1030A0007F8001FFE0038070060088040088040030
:1030B000C806003C03003E01FFE6007F84000000DC
:1030C00004000807FFF807FFF804080804080004D4
:1030D0000C00040F00040BC00610F003F03801E0F0
:1030E0000800000800000001E0F803F0300630108E
:1030F000041808041808040C08040C080206180236
:1031000007F00781E00000000180000600000400D5
:103110000004000004000807FFF807FFF804000897
:103120000400000400000600000180000400000705
:10313000FFE007FFF004001800000800000800008E
:103140000800000800000804001007FFE004000069
:1031500004000006000007E00007FE00041FE00076
:1031600001F80000380001E0043E0007C00006003E
:103170000004000004000007E00007FFC0041FF87F
:103180000007C007F80007FF80043FF80007C004ED
:10319000F80007000004000000000004000806001A
:1031A0001807C07805F1C8003E00001F800463E8DE
:1031B0000780F8060018040008000000040000065C
:1031C000000007800007E008047C08001FF80007E3
:1031D000F800180804E008070000060000040000DA
:1031E0000000000100080600380400F80403E804A9
:1031F0000F08047C0805F00807C008070018040041
:10320000600000000000000000000000000000005E
:103210000000003FFFFE20000220000220000220EC
:103220000002200002000000000000000000080072
:103230000007000000C0000038000006000001C0C8
:1032400000003000000E000001000000000000003F
:1032500000002000022000022000022000022000C6
:10326000023FFFFE00000000000000000000000020
:103270000000000000000000000800001000003006
:1032800000002000003000001000000800000000D6
:10329000000000000000010000010000010000012A
:1032A0000000010000010000010000010000010019
:1032B000000100000100000100000000000000000B
:1032C000002000002000001000001000000000009E
:1032D00000000000000000000000000000000000EE
:1032E00000F00019F8001B1800220800260800242E
:1032F00008002410003FF8001FF800000800001824
:1033000000000004000007FFF80FFFF0001818008D
:103310001008002008002008003018001FF0000FDF
:10332000C00000000000000007C0001FF0001830BF
:10333000002008002008002008003C08001C1000A5
:1033400000600000000000000000000007C0001F37
:10335000F000381800200800200800200804101091
:1033600007FFF80FFFF00000100000000000000051
:1033700000000007C0001FF00012300022180022D9
:1033800008002208003208001E10000E2000000075
:1033900000000000200000200800200801FFF803C2
:1033A000FFF8062008042008042008072000030076
:1033B0000000000000000000000E000E6E001FF371
:1033C0000031B10020B10020B1003191001F130085
:1033D0002E1E00200E00300000000004000807FF31
:1033E000F80FFFF80010080020000020000020085F
:1033F000003FF8001FF80000080000000000000077
:103400000000002008002008002008063FF8063FC2
:10341000F80000080000080000080000000000009C
:103420000000000000000000030000030020010075
:103430002001002003063FFE063FFC0000000000C4
:103440000000000000000004000807FFF80FFFF86C
:10345000000188000300002FC00038F80020380069
:103460002008000008000000000000000000040028
:103470000804000804000807FFF80FFFF800000820
:103480000000080000080000000000000020080004
:103490003FF8003FF8001008002000003FF8003F10
:1034A000F8001008002000003FF8003FF800000876
:1034B000000000002008003FF8003FF8001008005E
:1034C0001000002000002008003FF8001FF8000056
:1034D000080000000000000007C0000FF0001830D6
:1034E00000300800200800200800300800183000D4
:1034F0000FF00007C0000000000000002001003FA6
:10350000FF003FFF001011002009002008002008E4
:10351000003038001FF0000FC00000000000000065
:1035200007C0001FF0003818002008002008002005
:1035300009001011001FFF003FFF00000100000004
:10354000002008002008002008003FF8003FF80095
:10355000080800100800200800200000300000309B
:1035600000000000000000000000000C78001E18A1
:10357000003308002308002108002188002198005A
:1035800030F0003860000000000000002000002043
:103590000000200000FFF003FFF8002008002008D2
:1035A00000200800003000000000000000000000C3
:1035B0002000003FF0007FF8000018000008000025
:1035C00008002010003FF8007FF00000100000000D
:1035D000000000002000003000003C00003F8000A0
:1035E00023F0000078000070002380003C000030D1
:1035F00000002000002000003C00003FE00023F815
:103600000000E0002700003E00003FE00021F8003D
:1036100001E0003E00002000000000002008002023
:1036200008003838003E680027800003C8002CF8E6
:1036300000383800201800200800000000000000BA
:103640002000003003003C01003F830023EC000019
:1036500070002380003C00002000002000000000DB
:103660000000000000000038080020380020F800AA
:1036700023E8002F88003E080038080020180000CA
:1036800070000000000000000000000000000000CA
:103690000000000008000014001FF7FC30000620A6
:1036A0000002000000000000000000000000000018
:1036B00000000000000000000000FFFFFF0000000D
:1036C00000000000000000000000000000000000FA
:1036D00000002000023000061FF7FC001400000864
:1036E00000000000000000000000000000000000DA
:1036F00000000018000060000040000040000020B2
:1037000000001000000800000400000400000C008D
:103710000010000000000000000000000000000099
:103720000000000000000000000000000000000099
:103730000000000000000000000000000000000089
:103740000000000000000000000000000000000079
:103750000000000000000000000000000000000069
:103760000000000000000000000000000000000059
:103770000000000000000000000000000000000049
:103780000000000000000000000000000000000039
:103790000000000000000000000000000000000029
:1037A00000000000000000000000000007F000C062
:1037B00007FFE1E007F001E0000000C000000000AA
:1037C00000000000000000000000000000000000F9
:1037D00000000000000000000000000000000000E9
:1037E00000000000000000000000000000000000D9
:1037F00000000000000000000000000000000000C9
:1038000000000000000000000000000000000000B8
:103810000000000000000000000000000020000088
:1038200001C00000078000001F0000001E00000013
:103830001C20000001C00000078000001F000000E5
:103840001E0000001C00000000000000000000003E
:103850000000000000000000000000000000000068
:103860000000000000000000000000000000000058
:103870000000000000000000000000000000000048
:103880000000000000000000000000000000000038
:10389000000000000000000000180C0000180C00E0
:1038A00000180FE0001FFC0003F80C0000180C00CB
:1038B00000180C0000180C0000180C0000180FE095
:1038C000001FFC0003F80C0000180C0000180C008E
:1038D00000000000000000000000000000000000E8
:1038E00000000000000000000000000000000000D8
:1038F00000000000000000000000000000000000C8
:1039000000000000000000000000000000000000B7
:103910000000000000000000000000000000078020
:10392000007807C000FC0640010E002003070020BD
:10393000020380200FFFFFFC0201C0200200E060B4
:103940000130704001F03F8000F01F0000000000D7
:103950000000000000000000000000000000000067
:103960000000000000000000000000000000000057
:103970000000000000000000000000000000000047
:103980000000000000000000000000000000000037
:103990000000000000FE000001FF000003018000A5
:1039A00002008060030181C001FF070000FE1800D3
:1039B0000000E0000003BF00000CFFC00071806049
:1039C00001C10020030180600000FFC000003F0033
:1039D00000000000000000000000000000000000E7
:1039E00000000000000000000000000000000000D7
:1039F00000000000000000000000000000000000C7
:103A000000000000000000000000000000000000B6
:103A10000000000000001F0000007FC000FCC0C0CC
:103A200001FF80600303E0200202782002061E20CE
:103A300003FC074001F00380000103C000011C608B
:103A40000001E02000010020000100400000018092
:103A50000000000000000000000000000000000066
:103A60000000000000000000000000000000000056
:103A70000000000000000000000000000000000046
:103A80000000000000000000000000000000000036
:103A90000000000000000000002000001C6000008A
:103AA0001C4000001F8000000F000000000000000C
:103AB0000000000000000000000000000000000006
:103AC00000000000000000000000000000000000F6
:103AD00000000000000000000000000000000000E6
:103AE00000000000000000000000000000000000D6
:103AF00000000000000000000000000000000000C6
:103B000000000000000000000000000000000000B5
:103B100000000000000000000000000000000000A5
:103B20000000000000000000000000000000000095
:103B30000007F800003FFF00007807C001C000E068
:103B40000300003004000008080000041000000218
:103B50000000000000000000000000000000000065
:103B60000000000000000000000000000000000055
:103B70000000000000000000000000000000000045
:103B80000000000000000000000000000000000035
:103B90000000000000000000100000020800000407
:103BA000040000080300003001C000E0007807C0F6
:103BB000003FFF000007F8000000000000000000C8
:103BC00000000000000000000000000000000000F5
:103BD00000000000000000000000000000000000E5
:103BE00000000000000000000000000000000000D5
:103BF00000000000000000000000000000000000C5
:103C000000000000000000000000000000000000B4
:103C1000000000000000000000000000000C180080
:103C2000000E3800000E380000063000000360006F
:103C30000061438000FFFF800061430000036000DB
:103C400000063000000E3800000E3800000C18008E
:103C50000000000000000000000000000000000064
:103C60000000000000000000000000000000000054
:103C70000000000000000000000000000000000044
:103C80000000000000000000000000000000000034
:103C900000000000000000000000000000008000A4
:103CA0000000800000008000000080000000800014
:103CB00000008000007FFF00000080000000800006
:103CC00000008000000080000000800000008000F4
:103CD00000000000000000000000000000000000E4
:103CE00000000000000000000000000000000000D4
:103CF00000000000000000000000000000000000C4
:103D000000000000000000000000000000000000B3
:103D1000000000000000000000000001000000E3BF
:103D2000000000E2000000FC00000078000000003D
:103D30000000000000000000000000000000000083
:103D40000000000000000000000000000000000073
:103D50000000000000000000000000000000000063
:103D60000000000000000000000000000000000053
:103D70000000000000000000000000000000000043
:103D80000000000000000000000000000000000033
:103D90000000000000000000000080000000800023
:103DA0000000800000008000000080000000800013
:103DB0000000800000008000000080000000800003
:103DC00000008000000080000000800000008000F3
:103DD00000000000000000000000000000000000E3
:103DE00000000000000000000000000000000000D3
:103DF00000000000000000000000000000000000C3
:103E000000000000000000000000000000000000B2
:103E1000000000000000000000000000000000C0E2
:103E2000000001E0000001E0000000C00000000010
:103E30000000000000000000000000000000000082
:103E40000000000000000000000000000000000072
:103E50000000000000000000000000000000000062
:103E60000000000000000000000000000000000052
:103E70000000000000000000000000000000000042
:103E80000000000000000000000000000000000032
:103E900000000000000000000000000C00000038DE
:103EA000000000E00000038000000E000000380069
:103EB0000000E00000038000000E00000038000059
:103EC00000E00000038000000E0000001800000069
:103ED00000000000000000000000000000000000E2
:103EE00000000000000000000000000000000000D2
:103EF00000000000000000000000000000000000C2
:103F000000000000000000000000000000000000B1
:103F1000000000000000000000000000000FF8009A
:103F2000007FFF0000F00780018000C003000060F8
:103F300002000020020000200200002003000060B8
:103F4000018000C000E00380007FFF00000FF80048
:103F50000000000000000000000000000000000061
:103F60000000000000000000000000000000000051
:103F70000000000000000000000000000000000041
:103F80000000000000000000000000000000000031
:103F90000000000000000000000000000000000021
:103FA0000080002000800020008000200080006051
:103FB00001FFFFE003FFFFE00000006000000020C1
:103FC00000000020000000200000000000000000B1
:103FD00000000000000000000000000000000000E1
:103FE00000000000000000000000000000000000D1
:103FF00000000000000000000000000000000000C1
:1040000000000000000000000000000000000000B0
:10401000000000000000000000000000007800E048
:104020000098016001000260020004600200086064
:104030000200106002002060020040600300806007
:104040000183006001FE00E0007C078000000000AA
:104050000000000000000000000000000000000060
:104060000000000000000000000000000000000050
:104070000000000000000000000000000000000040
:104080000000000000000000000000000000000030
:1040900000000000000000000000000000F00780A9
:1040A00001F007C0010000400200002002010020D2
:1040B00002010020020100200303802001868040CD
:1040C00001FCC0C000787F8000001E0000000000DE
:1040D00000000000000000000000000000000000E0
:1040E00000000000000000000000000000000000D0
:1040F00000000000000000000000000000000000C0
:1041000000000000000000000000000000000000AF
:10411000000000000000000000000800000038005F
:10412000000048000001880000060800000C08108C
:10413000003008100040081001FFFFF003FFFFF0FF
:1041400003FFFFF000000810000008100000081036
:10415000000000000000000000000000000000005F
:10416000000000000000000000000000000000004F
:10417000000000000000000000000000000000003F
:10418000000000000000000000000000000000002F
:104190000000000000000000000000000000078098
:1041A000001F864003E100200302002003040020DA
:1041B0000304002003040020030400200306004041
:1041C000030301C00301FF8003007E000000000024
:1041D00000000000000000000000000000000000DF
:1041E00000000000000000000000000000000000CF
:1041F00000000000000000000000000000000000BF
:1042000000000000000000000000000000000000AE
:104210000000000000000000000000000007FC009B
:10422000003FFF000070C380008180C0010100607A
:1042300003020020020200200202002002020020ED
:104240000203004001C180C000C0FF8000007E006A
:10425000000000000000000000000000000000005E
:10426000000000000000000000000000000000004E
:10427000000000000000000000000000000000003E
:10428000000000000000000000000000000000002E
:1042900000000000000000000000000000F000002E
:1042A00003C000000380000003000000030007E0DB
:1042B00003003FE00301C0000306000003180000F4
:1042C0000360000003800000030000000000000005
:1042D00000000000000000000000000000000000DE
:1042E00000000000000000000000000000000000CE
:1042F00000000000000000000000000000000000BE
:1043000000000000000000000000000000000000AD
:10431000000000000000000000001F0000783F8047
:1043200000FC60C0018EC040030780200203002013
:1043300002018020020180200201C0200301E04030
:10434000018670C000FC3F8000781F000000000064
:10435000000000000000000000000000000000005D
:10436000000000000000000000000000000000004D
:10437000000000000000000000000000000000003D
:10438000000000000000000000000000000000002D
:104390000000000000000000003F000000FF81C09E
:1043A00001C0C1C0010060200200202002002020C6
:1043B0000200202002002060020040C00100C180F5
:1043C00000C18F00007FFE00001FF0000000000011
:1043D00000000000000000000000000000000000DD
:1043E00000000000000000000000000000000000CD
:1043F00000000000000000000000000000000000BD
:1044000000000000000000000000000000000000AC
:10441000000000000000000000000000000000009C
:10442000000000000000000000000000000300C0C9
:10443000000781E0000781E0000300C000000000E9
:10444000000000000000000000000000000000006C
:10445000000000000000000000000000000000005C
:10446000000000000000000000000000000000004C
:10447000000000000000000000000000000000003C
:10448000000000000000000000000000000000002C
:10449000000000000000000000000000000000001C
:1044A00000000000000000000000000000060066A0
:1044B000000600780000000000000000000000007E
:1044C00000000000000000000000000000000000EC
:1044D00000000000000000000000000000000000DC
:1044E00000000000000000000000000000000000CC
:1044F00000000000000000000000000000000000BC
:1045000000000000000000000000000000000000AB
:10451000000000000000000000000000000080001B
:104520000001C0000003600000063000000C18000D
:1045300000180C00003006000060030000C001807D
:1045400001000040020000200400001000000000F4
:10455000000000000000000000000000000000005B
:10456000000000000000000000000000000000004B
:10457000000000000000000000000000000000003B
:10458000000000000000000000000000000000002B
:1045900000000000000000000004100000041000F3
:1045A00000041000000410000004100000041000BB
:1045B00000041000000410000004100000041000AB
:1045C000000410000004100000041000000410009B
:1045D00000000000000000000000000000000000DB
:1045E00000000000000000000000000000000000CB
:1045F00000000000000000000000000000000000BB
:1046000000000000000000000000000000000000AA
:104610000000000000000000000000000400001086
:10462000020000200100004000C001800060030083
:104630000030060000180C00000C180000063000C6
:10464000000360000001C0000000800000000000C6
:10465000000000000000000000000000000000005A
:10466000000000000000000000000000000000004A
:10467000000000000000000000000000000000003A
:10468000000000000000000000000000000000002A
:1046900000000000000000000000000000780000A2
:1046A00001F800000238000002000000040000C011
:1046B000040079E0040081E0040100C0040300006C
:1046C000020200000306000001FC000000F80000E8
:1046D00000000000000000000000000000000000DA
:1046E00000000000000000000000000000000000CA
:1046F00000000000000000000000000000000000BA
:1047000000000000000000000000000000000000A9
:104710000000000000000000000FF800003FFE0055
:104720000070078000C000C00101F8400307FC20B2
:10473000021E04200230082002203020023FFC200C
:10474000013F044001800CC000E03180001FC20026
:104750000000000000000000000000000000000059
:104760000000000000000000000000000000000049
:104770000000000000000000000000000000000039
:104780000000000000000000000000000000000029
:10479000000000000000002000000060000003E0B6
:1047A00000003E200003E020003E200003E0200047
:1047B0000380200007FC2000003FE0000003FE20F3
:1047C00000003FE0000001E00000002000000020A9
:1047D00000000000000000000000000000000000D9
:1047E00000000000000000000000000000000000C9
:1047F00000000000000000000000000000000000B9
:1048000000000000000000000000000000000000A8
:104810000000000000000000020000200200002054
:1048200003FFFFE003FFFFE0020100200201002080
:1048300002010020020100200201002003030020E9
:104840000186806001FCC0C000F87F8000001F006E
:104850000000000000000000000000000000000058
:104860000000000000000000000000000000000048
:104870000000000000000000000000000000000038
:104880000000000000000000000000000000000028
:1048900000000000000000000007F800003FFF00DB
:1048A0000070078000C000C001000040030000202D
:1048B0000200002002000020020000200200002070
:1048C00001000040018000C003C0018000300600EC
:1048D00000000000000000000000000000000000D8
:1048E00000000000000000000000000000000000C8
:1048F00000000000000000000000000000000000B8
:1049000000000000000000000000000000000000A7
:104910000000000000000000020000200200002053
:1049200003FFFFE003FFFFE0020000200200002081
:10493000020000200200002003000060010000408F
:10494000018000C000F00780007FFE00000FF8002B
:104950000000000000000000000000000000000057
:104960000000000000000000000000000000000047
:104970000000000000000000000000000000000037
:104980000000000000000000000000000000000027
:1049900000000000000000000200002002000020D3
:1049A00003FFFFE003FFFFE00201002002010020FF
:1049B00002010020020100200201002002038020E9
:1049C000020FE0200300006003C000E0006003006D
:1049D00000000000000000000000000000000000D7
:1049E00000000000000000000000000000000000C7
:1049F00000000000000000000000000000000000B7
:104A000000000000000000000000000000000000A6
:104A10000000000000000000020000200200002052
:104A200003FFFFE003FFFFE002010020020100207E
:104A3000020100000201000002010000020100006A
:104A400002038000030FE0000300000003C0000029
:104A500000600000000000000000000000000000F6
:104A60000000000000000000000000000000000046
:104A70000000000000000000000000000000000036
:104A80000000000000000000000000000000000026
:104A900000000000000000000007F800003FFE00DA
:104AA0000070078001C001C0010000400300002029
:104AB000020000200200002002000020010020204F
:104AC0000100204003C03F8000303F8000002000F4
:104AD00000002000000000000000000000000000B6
:104AE00000000000000000000000000000000000C6
:104AF00000000000000000000000000000000000B6
:104B000000000000000000000000000000000000A5
:104B100000000000020000200200002003FFFFE070
:104B200003FFFFE0020080200200802000008000E0
:104B30000000800000008000020080200200802031
:104B400003FFFFE003FFFFE002000020020000205F
:104B50000000000000000000000000000000000055
:104B60000000000000000000000000000000000045
:104B70000000000000000000000000000000000035
:104B80000000000000000000000000000000000025
:104B90000000000000000000000000000000000015
:104BA000020000200200002002000020020000207D
:104BB00003FFFFE003FFFFE00200002002000020EF
:104BC00002000020020000200000000000000000A1
:104BD00000000000000000000000000000000000D5
:104BE00000000000000000000000000000000000C5
:104BF00000000000000000000000000000000000B5
:104C000000000000000000000000000000000000A4
:104C100000000000000000000000000E0000000F77
:104C20000000000F0000000102000001020000016E
:104C3000020000030200000603FFFFFC03FFFFF871
:104C4000020000000200000002000000020000005C
:104C50000000000000000000000000000000000054
:104C60000000000000000000000000000000000044
:104C70000000000000000000000000000000000034
:104C80000000000000000000000000000000000024
:104C900000000000000000000200002002000020D0
:104CA00003FFFFE003FFFFE00200C020020100203D
:104CB00000078000000FE0000030F80002603E2096
:104CC00003800F20030003E0020000E00200002048
:104CD00000000020000000000000000000000000B4
:104CE00000000000000000000000000000000000C4
:104CF00000000000000000000000000000000000B4
:104D000000000000000000000000000000000000A3
:104D1000000000000000000002000020020000204F
:104D200003FFFFE003FFFFE002000020020000207D
:104D300000000020000000200000002000000020F3
:104D40000000002000000060000000E00000030000
:104D50000000000000000000000000000000000053
:104D60000000000000000000000000000000000043
:104D70000000000000000000000000000000000033
:104D80000000000000000000000000000000000023
:104D900000000000020000200200002003FFFFE0EE
:104DA00003E0002003FF0020001FF0000001FF804F
:104DB00000000FE000001E000003E000003E0020A5
:104DC00003E0002003FFFFE003FFFFE002000020FC
:104DD00002000020000000000000000000000000B1
:104DE00000000000000000000000000000000000C3
:104DF00000000000000000000000000000000000B3
:104E000000000000000000000000000000000000A2
:104E100000000000020000200200002003FFFFE06D
:104E20000380002003F0002000FC0000001F0000B1
:104E30000007C0000001F00000007C0002001F809D
:104E4000020007E003FFFFE0020000000200000094
:104E50000000000000000000000000000000000052
:104E60000000000000000000000000000000000042
:104E70000000000000000000000000000000000032
:104E80000000000000000000000000000000000022
:104E90000000000000000000000FF800003FFE00CE
:104EA00000F00780018000C00100004002000020E7
:104EB000020000200200002002000020010000404B
:104EC000018000C000F00380003FFE00000FF800EA
:104ED00000000000000000000000000000000000D2
:104EE00000000000000000000000000000000000C2
:104EF00000000000000000000000000000000000B2
:104F000000000000000000000000000000000000A1
:104F1000000000000000000002000020020000204D
:104F200003FFFFE003FFFFE002008020020080207B
:104F30000200800002008000020080000200800069
:104F4000030180000183000000FE0000007C0000DF
:104F50000000000000000000000000000000000051
:104F60000000000000000000000000000000000041
:104F70000000000000000000000000000000000031
:104F80000000000000000000000000000000000021
:104F90000000000000000000000FF800007FFF008C
:104FA00000F00380018001C00100064002000420DF
:104FB0000200042002000620020003E0010000F8C5
:104FC0000180005C00E0038C003FFF0C000FFC1828
:104FD00000000000000000000000000000000000D1
:104FE00000000000000000000000000000000000C1
:104FF00000000000000000000000000000000000B1
:1050000000000000000000000000000000000000A0
:10501000000000000000000002000020020000204C
:1050200003FFFFE003FFFFE0020100200201002078
:10503000020180000201E0000201FC0003033F8046
:10504000018607E001FC00E000F8002000000020DD
:105050000000000000000000000000000000000050
:105060000000000000000000000000000000000040
:105070000000000000000000000000000000000030
:105080000000000000000000000000000000000020
:105090000000000000000000000000000078060092
:1050A00000FE01E0018600C003030040020300206F
:1050B00002018020020180200201C0200200C020E5
:1050C0000100E060018070C003E03F8000001F002D
:1050D00000000000000000000000000000000000D0
:1050E00000000000000000000000000000000000C0
:1050F00000000000000000000000000000000000B0
:10510000000000000000000000000000000000009F
:1051100000000000000000000060000003800000AC
:105120000300000002000000020000200200002036
:1051300003FFFFE003FFFFE0020000200200002069
:1051400002000000020000000380000000E00000F8
:10515000000000000000000000000000000000004F
:10516000000000000000000000000000000000003F
:10517000000000000000000000000000000000002F
:10518000000000000000000000000000000000001F
:1051900000000000020000000200000003FFFF000A
:1051A00003FFFFC00200004002000060000000207A
:1051B000000000200000002000000020020000404D
:1051C0000200008003FFFF00020000000200000058
:1051D00000000000000000000000000000000000CF
:1051E00000000000000000000000000000000000BF
:1051F00000000000000000000000000000000000AF
:10520000000000000000000000000000000000009E
:10521000000000000000000002000000020000008A
:1052200003C0000003FC0000023FC0000003F800C0
:1052300000007F80000007E0000007800000780089
:105240000203C000023C000003C000000200000096
:10525000020000000000000000000000000000004C
:10526000000000000000000000000000000000003E
:10527000000000000000000000000000000000002E
:10528000000000000000000000000000000000001E
:10529000000000000200000003C0000003FF8000C7
:1052A000023FFE0002007FE000000F000200F0005D
:1052B00003EF000003FF8000020FFE0000003FE04C
:1052C00000001F000207E00003F8000003000000D8
:1052D00002000000000000000000000000000000CC
:1052E00000000000000000000000000000000000BE
:1052F00000000000000000000000000000000000AE
:10530000000000000000000000000000000000009D
:105310000000000000000000020000200200002049
:10532000038000E003F0032002FC0C20021F300089
:105330000007C0000007F00002187C0002601F2078
:10534000038003E0020000E00200002000000020D3
:10535000000000000000000000000000000000004D
:10536000000000000000000000000000000000003D
:10537000000000000000000000000000000000002D
:10538000000000000000000000000000000000001D
:105390000000000000000000020000000300000008
:1053A00003C0000003F80000023E0020020FC020EE
:1053B0000001FFE000007FE000038020021C0020CD
:1053C00002700000038000000200000002000000E4
:1053D00000000000000000000000000000000000CD
:1053E00000000000000000000000000000000000BD
:1053F00000000000000000000000000000000000AD
:10540000000000000000000000000000000000009C
:10541000000000000000000000000020006000E02C
:10542000038003E003000FA002003E200200F820EA
:105430000203E020020F8020023E002002780020BC
:1054400003E00060038000E00200030000000000B1
:10545000000000000000000000000000000000004C
:10546000000000000000000000000000000000003C
:10547000000000000000000000000000000000002C
:10548000000000000000000000000000000000001C
:10549000000000000000000000000000000000000C
:1054A0000000000000000000000000001FFFFFFCE3
:1054B000100000041000000410000004100000049C
:1054C00010000004100000041000000400000000A0
:1054D00000000000000000000000000000000000CC
:1054E00000000000000000000000000000000000BC
:1054F00000000000000000000000000000000000AC
:10550000000000000000000000000000000000009B
:10551000000000000000000000000000000000008B
:105520000700000003C0000000780000001E00001B
:105530000003C0000000F00000001E000000078013
:10554000000000F00000003C000000060000000029
:10555000000000000000000000000000000000004B
:10556000000000000000000000000000000000003B
:10557000000000000000000000000000000000002B
:10558000000000000000000000000000000000001B
:1055900000000000000000000000000010000004F7
:1055A00010000004100000041000000410000004AB
:1055B00010000004100000041FFFFFFC00000000AA
:1055C00000000000000000000000000000000000DB
:1055D00000000000000000000000000000000000CB
:1055E00000000000000000000000000000000000BB
:1055F00000000000000000000000000000000000AB
:10560000000000000000000000000000000000009A
:10561000000000000000000000000000000000008A
:10562000000000000200000004000000080000006C
:105630001800000010000000180000001800000012
:105640000400000002000000000000000000000054
:10565000000000000000000000000000000000004A
:10566000000000000000000000000000000000003A
:10567000000000000000000000000000000000002A
:10568000000000000000000000000000000000001A
:105690000000000000000001000000010000000107
:1056A00000000001000000010000000100000001F6
:1056B00000000001000000010000000100000001E6
:1056C00000000001000000010000000100000001D6
:1056D00000000001000000000000000000000000C9
:1056E00000000000000000000000000000000000BA
:1056F00000000000000000000000000000000000AA
:105700000000000000000000000000000000000099
:105710000000000000000000000000000000000089
:105720001000000010000000100000001800000031
:10573000080000000400000000000000000000005D
:105740000000000000000000000000000000000059
:105750000000000000000000000000000000000049
:105760000000000000000000000000000000000039
:105770000000000000000000000000000000000029
:105780000000000000000000000000000000000019
:1057900000000000000000000000038000018FC036
:1057A00000038C6000061820000410200004102064
:1057B0000004202000042040000620400003FFC019
:1057C0000001FFE00000002000000020000000C0F9
:1057D00000000000000000000000000000000000C9
:1057E00000000000000000000000000000000000B9
:1057F00000000000000000000000000000000000A9
:105800000000000000000000000000000000000098
:105810000000000000000000020000000200000084
:1058200003FFFFE007FFFFC0000180C0000200602F
:1058300000020020000400200004002000040020DA
:1058400000060040000300C00001FF800000FE00D1
:105850000000000000000000000000000000000048
:105860000000000000000000000000000000000038
:105870000000000000000000000000000000000028
:105880000000000000000000000000000000000018
:1058900000000000000000000000000000007E008A
:1058A0000001FF80000381C00002004000060020CC
:1058B0000004002000040020000400200006002056
:1058C0000003C0400001C080000003000000000091
:1058D00000000000000000000000000000000000C8
:1058E00000000000000000000000000000000000B8
:1058F00000000000000000000000000000000000A8
:105900000000000000000000000000000000000097
:1059100000000000000000000000000000007E0009
:105920000001FF80000380C000060060000400202A
:105930000004002000040020020400400202008055
:1059400003FFFFE007FFFFC0000000400000004031
:105950000000000000000000000000000000000047
:105960000000000000000000000000000000000037
:105970000000000000000000000000000000000027
:105980000000000000000000000000000000000017
:1059900000000000000000000000000000007E0089
:1059A0000001FF80000311C00002104000041060DD
:1059B0000004102000041020000410200006102015
:1059C000000310400001F0C0000071000000000062
:1059D00000000000000000000000000000000000C7
:1059E00000000000000000000000000000000000B7
:1059F00000000000000000000000000000000000A7
:105A00000000000000000000000000000000000096
:105A10000000000000000000000000000004000082
:105A2000000400200004002000040020007FFFE0AC
:105A300001FFFFE001040020030400200204002015
:105A400002040020020400000200000001C0000067
:105A500001C0000000000000000000000000000085
:105A60000000000000000000000000000000000036
:105A70000000000000000000000000000000000026
:105A80000000000000000000000000000000000016
:105A90000000000000000000000000000000001CEA
:105AA0000000E33E0003FFC200020CC3000404C177
:105AB000000404C1000404C1000404C100060CC1B8
:105AC0000003F8C30005F0620006007E0006003CFB
:105AD00000000000000000000000000000000000C6
